{
  "contractName": "Market",
  "abi": [
    {
      "anonymous": false,
      "inputs": [
        {
          "indexed": false,
          "internalType": "uint256",
          "name": "listingId",
          "type": "uint256"
        },
        {
          "indexed": false,
          "internalType": "address",
          "name": "seller",
          "type": "address"
        }
      ],
      "name": "Cancel",
      "type": "event"
    },
    {
      "anonymous": false,
      "inputs": [
        {
          "indexed": false,
          "internalType": "uint256",
          "name": "listingId",
          "type": "uint256"
        },
        {
          "indexed": false,
          "internalType": "address",
          "name": "seller",
          "type": "address"
        },
        {
          "indexed": false,
          "internalType": "address",
          "name": "token",
          "type": "address"
        },
        {
          "indexed": false,
          "internalType": "uint256",
          "name": "tokenId",
          "type": "uint256"
        },
        {
          "indexed": false,
          "internalType": "uint256",
          "name": "price",
          "type": "uint256"
        }
      ],
      "name": "Listed",
      "type": "event"
    },
    {
      "anonymous": false,
      "inputs": [
        {
          "indexed": false,
          "internalType": "uint256",
          "name": "listingId",
          "type": "uint256"
        },
        {
          "indexed": false,
          "internalType": "address",
          "name": "buyer",
          "type": "address"
        },
        {
          "indexed": false,
          "internalType": "address",
          "name": "token",
          "type": "address"
        },
        {
          "indexed": false,
          "internalType": "uint256",
          "name": "tokenId",
          "type": "uint256"
        },
        {
          "indexed": false,
          "internalType": "uint256",
          "name": "price",
          "type": "uint256"
        }
      ],
      "name": "Sale",
      "type": "event"
    },
    {
      "inputs": [],
      "name": "listingId",
      "outputs": [
        {
          "internalType": "uint256",
          "name": "",
          "type": "uint256"
        }
      ],
      "stateMutability": "view",
      "type": "function",
      "constant": true
    },
    {
      "inputs": [
        {
          "internalType": "address",
          "name": "_token",
          "type": "address"
        },
        {
          "internalType": "uint256",
          "name": "_tokenId",
          "type": "uint256"
        },
        {
          "internalType": "uint256",
          "name": "_price",
          "type": "uint256"
        }
      ],
      "name": "listToken",
      "outputs": [],
      "stateMutability": "nonpayable",
      "type": "function"
    },
    {
      "inputs": [
        {
          "internalType": "uint256",
          "name": "_listingId",
          "type": "uint256"
        }
      ],
      "name": "getListing",
      "outputs": [
        {
          "components": [
            {
              "internalType": "enum Market.ListingStatus",
              "name": "status",
              "type": "uint8"
            },
            {
              "internalType": "address",
              "name": "seller",
              "type": "address"
            },
            {
              "internalType": "address",
              "name": "buyer",
              "type": "address"
            },
            {
              "internalType": "address",
              "name": "token",
              "type": "address"
            },
            {
              "internalType": "uint256",
              "name": "tokenId",
              "type": "uint256"
            },
            {
              "internalType": "uint256",
              "name": "price",
              "type": "uint256"
            }
          ],
          "internalType": "struct Market.Listing",
          "name": "",
          "type": "tuple"
        }
      ],
      "stateMutability": "view",
      "type": "function",
      "constant": true
    },
    {
      "inputs": [
        {
          "internalType": "uint256",
          "name": "_listingId",
          "type": "uint256"
        }
      ],
      "name": "buyToken",
      "outputs": [],
      "stateMutability": "payable",
      "type": "function",
      "payable": true
    },
    {
      "inputs": [
        {
          "internalType": "uint256",
          "name": "_listingId",
          "type": "uint256"
        }
      ],
      "name": "cancel",
      "outputs": [],
      "stateMutability": "nonpayable",
      "type": "function"
    }
  ],
  "bytecode": "0x60806040526000805534801561001457600080fd5b5061117d806100246000396000f3fe60806040526004361061004a5760003560e01c8063107a274a1461004f5780632d296bf11461008c57806340e58ee5146100a85780637e07590d146100d15780639405dfdd146100fa575b600080fd5b34801561005b57600080fd5b5061007660048036038101906100719190610b87565b610125565b6040516100839190610cf6565b60405180910390f35b6100a660048036038101906100a19190610b87565b6102a3565b005b3480156100b457600080fd5b506100cf60048036038101906100ca9190610b87565b6105f1565b005b3480156100dd57600080fd5b506100f860048036038101906100f39190610d3d565b610837565b005b34801561010657600080fd5b5061010f610abc565b60405161011c9190610d9f565b60405180910390f35b61012d610ac2565b600160008381526020019081526020016000206040518060c00160405290816000820160009054906101000a900460ff1660028111156101705761016f610bb4565b5b600281111561018257610181610bb4565b5b81526020016000820160019054906101000a900473ffffffffffffffffffffffffffffffffffffffff1673ffffffffffffffffffffffffffffffffffffffff1673ffffffffffffffffffffffffffffffffffffffff1681526020016001820160009054906101000a900473ffffffffffffffffffffffffffffffffffffffff1673ffffffffffffffffffffffffffffffffffffffff1673ffffffffffffffffffffffffffffffffffffffff1681526020016002820160009054906101000a900473ffffffffffffffffffffffffffffffffffffffff1673ffffffffffffffffffffffffffffffffffffffff1673ffffffffffffffffffffffffffffffffffffffff168152602001600382015481526020016004820154815250509050919050565b60006001600083815260200190815260200160002090508060000160019054906101000a900473ffffffffffffffffffffffffffffffffffffffff1673ffffffffffffffffffffffffffffffffffffffff163373ffffffffffffffffffffffffffffffffffffffff16141561034d576040517f08c379a000000000000000000000000000000000000000000000000000000000815260040161034490610e17565b60405180910390fd5b6000600281111561036157610360610bb4565b5b8160000160009054906101000a900460ff16600281111561038557610384610bb4565b5b146103c5576040517f08c379a00000000000000000000000000000000000000000000000000000000081526004016103bc90610e83565b60405180910390fd5b806004015434101561040c576040517f08c379a000000000000000000000000000000000000000000000000000000000815260040161040390610eef565b60405180910390fd5b60018160000160006101000a81548160ff0219169083600281111561043457610433610bb4565b5b0217905550338160010160006101000a81548173ffffffffffffffffffffffffffffffffffffffff021916908373ffffffffffffffffffffffffffffffffffffffff1602179055508060020160009054906101000a900473ffffffffffffffffffffffffffffffffffffffff1673ffffffffffffffffffffffffffffffffffffffff166323b872dd303384600301546040518463ffffffff1660e01b81526004016104e193929190610f1e565b600060405180830381600087803b1580156104fb57600080fd5b505af115801561050f573d6000803e3d6000fd5b505050508060000160019054906101000a900473ffffffffffffffffffffffffffffffffffffffff1673ffffffffffffffffffffffffffffffffffffffff166108fc82600401549081150290604051600060405180830381858888f19350505050158015610581573d6000803e3d6000fd5b507ff3debaf22196a6ddf52a60fa71058cd7edf5e25bb98f4e96c994a5d4a9b0dd3e82338360020160009054906101000a900473ffffffffffffffffffffffffffffffffffffffff16846003015485600401546040516105e5959493929190610f55565b60405180910390a15050565b60006001600083815260200190815260200160002090503373ffffffffffffffffffffffffffffffffffffffff168160000160019054906101000a900473ffffffffffffffffffffffffffffffffffffffff1673ffffffffffffffffffffffffffffffffffffffff161461069a576040517f08c379a00000000000000000000000000000000000000000000000000000000081526004016106919061101a565b60405180910390fd5b600060028111156106ae576106ad610bb4565b5b8160000160009054906101000a900460ff1660028111156106d2576106d1610bb4565b5b14610712576040517f08c379a000000000000000000000000000000000000000000000000000000000815260040161070990611086565b60405180910390fd5b60028160000160006101000a81548160ff0219169083600281111561073a57610739610bb4565b5b02179055508060020160009054906101000a900473ffffffffffffffffffffffffffffffffffffffff1673ffffffffffffffffffffffffffffffffffffffff166323b872dd303384600301546040518463ffffffff1660e01b81526004016107a493929190610f1e565b600060405180830381600087803b1580156107be57600080fd5b505af11580156107d2573d6000803e3d6000fd5b505050507f8dd3c361eb2366ff27c2db0eb07b9261f1d052570742ab8c9a0c326f37aa576d828260000160019054906101000a900473ffffffffffffffffffffffffffffffffffffffff1660405161082b9291906110a6565b60405180910390a15050565b8273ffffffffffffffffffffffffffffffffffffffff166323b872dd3330856040518463ffffffff1660e01b815260040161087493929190610f1e565b600060405180830381600087803b15801561088e57600080fd5b505af11580156108a2573d6000803e3d6000fd5b5050505060006040518060c00160405280600060028111156108c7576108c6610bb4565b5b81526020013373ffffffffffffffffffffffffffffffffffffffff168152602001600073ffffffffffffffffffffffffffffffffffffffff1681526020018573ffffffffffffffffffffffffffffffffffffffff16815260200184815260200183815250905060008081548092919061093f906110fe565b919050555080600160008054815260200190815260200160002060008201518160000160006101000a81548160ff0219169083600281111561098457610983610bb4565b5b021790555060208201518160000160016101000a81548173ffffffffffffffffffffffffffffffffffffffff021916908373ffffffffffffffffffffffffffffffffffffffff16021790555060408201518160010160006101000a81548173ffffffffffffffffffffffffffffffffffffffff021916908373ffffffffffffffffffffffffffffffffffffffff16021790555060608201518160020160006101000a81548173ffffffffffffffffffffffffffffffffffffffff021916908373ffffffffffffffffffffffffffffffffffffffff1602179055506080820151816003015560a082015181600401559050507f723f73331eaee88eec7fc68ef60ab6ed15e4b90d0472b55eb92fa43910bab6dd60005433868686604051610aae959493929190610f55565b60405180910390a150505050565b60005481565b6040518060c0016040528060006002811115610ae157610ae0610bb4565b5b8152602001600073ffffffffffffffffffffffffffffffffffffffff168152602001600073ffffffffffffffffffffffffffffffffffffffff168152602001600073ffffffffffffffffffffffffffffffffffffffff16815260200160008152602001600081525090565b600080fd5b6000819050919050565b610b6481610b51565b8114610b6f57600080fd5b50565b600081359050610b8181610b5b565b92915050565b600060208284031215610b9d57610b9c610b4c565b5b6000610bab84828501610b72565b91505092915050565b7f4e487b7100000000000000000000000000000000000000000000000000000000600052602160045260246000fd5b60038110610bf457610bf3610bb4565b5b50565b6000819050610c0582610be3565b919050565b6000610c1582610bf7565b9050919050565b610c2581610c0a565b82525050565b600073ffffffffffffffffffffffffffffffffffffffff82169050919050565b6000610c5682610c2b565b9050919050565b610c6681610c4b565b82525050565b610c7581610b51565b82525050565b60c082016000820151610c916000850182610c1c565b506020820151610ca46020850182610c5d565b506040820151610cb76040850182610c5d565b506060820151610cca6060850182610c5d565b506080820151610cdd6080850182610c6c565b5060a0820151610cf060a0850182610c6c565b50505050565b600060c082019050610d0b6000830184610c7b565b92915050565b610d1a81610c4b565b8114610d2557600080fd5b50565b600081359050610d3781610d11565b92915050565b600080600060608486031215610d5657610d55610b4c565b5b6000610d6486828701610d28565b9350506020610d7586828701610b72565b9250506040610d8686828701610b72565b9150509250925092565b610d9981610b51565b82525050565b6000602082019050610db46000830184610d90565b92915050565b600082825260208201905092915050565b7f53656c6c65722063616e6e6f742062652062757965722e000000000000000000600082015250565b6000610e01601783610dba565b9150610e0c82610dcb565b602082019050919050565b60006020820190508181036000830152610e3081610df4565b9050919050565b7f4c697374696e67206973206e6f74206163746976652e00000000000000000000600082015250565b6000610e6d601683610dba565b9150610e7882610e37565b602082019050919050565b60006020820190508181036000830152610e9c81610e60565b9050919050565b7f496e73756666696369656e74207061796d656e742e0000000000000000000000600082015250565b6000610ed9601583610dba565b9150610ee482610ea3565b602082019050919050565b60006020820190508181036000830152610f0881610ecc565b9050919050565b610f1881610c4b565b82525050565b6000606082019050610f336000830186610f0f565b610f406020830185610f0f565b610f4d6040830184610d90565b949350505050565b600060a082019050610f6a6000830188610d90565b610f776020830187610f0f565b610f846040830186610f0f565b610f916060830185610d90565b610f9e6080830184610d90565b9695505050505050565b7f4f6e6c792073656c6c65722063616e2063616e63656c20746865206c6973746960008201527f6e672e0000000000000000000000000000000000000000000000000000000000602082015250565b6000611004602383610dba565b915061100f82610fa8565b604082019050919050565b6000602082019050818103600083015261103381610ff7565b9050919050565b7f4c697374696e67206973206e6f74206163746976650000000000000000000000600082015250565b6000611070601583610dba565b915061107b8261103a565b602082019050919050565b6000602082019050818103600083015261109f81611063565b9050919050565b60006040820190506110bb6000830185610d90565b6110c86020830184610f0f565b9392505050565b7f4e487b7100000000000000000000000000000000000000000000000000000000600052601160045260246000fd5b600061110982610b51565b91507fffffffffffffffffffffffffffffffffffffffffffffffffffffffffffffffff82141561113c5761113b6110cf565b5b60018201905091905056fea2646970667358221220f0101910a9ba057fea724bac5171d862254942d7db9f37ecd56767e46c1d44d164736f6c634300080b0033",
  "immutableReferences": {},
  "source": "// SPDX-License-Identifier: MIT\npragma solidity ^0.8.9;\n\nimport \"./IERC721.sol\";\n\ncontract Market {\n    // public - anyone can call\n    // private - only this contract\n    // internal - only this contract and inheriting contracts\n    // external - only external calls \n    enum ListingStatus { Active, Sold, Cancelled } \n    struct Listing {\n        ListingStatus status;\n        address seller;\n        address buyer;\n        address token;\n        uint tokenId;\n        uint price;\n    }\n    \n    uint public listingId = 0;\n    mapping(uint => Listing) private listings;\n\n    event Listed(\n        uint listingId,\n        address seller,\n        address token,\n        uint tokenId,\n        uint price\n    );\n\n    event Sale(\n        uint listingId,\n        address buyer,\n        address token,\n        uint tokenId,\n        uint price\n    );\n\n    event Cancel(\n        uint listingId,\n        address seller\n    );\n\n    function listToken(address _token, uint _tokenId, uint _price) external {\n        IERC721(_token).transferFrom(msg.sender, address(this), _tokenId);\n        Listing memory list = Listing(\n            ListingStatus.Active,\n            msg.sender,\n            address(0x00),\n            _token,\n            _tokenId,\n            _price\n        );\n        listingId++;\n        listings[listingId] = list;\n        \n        emit Listed(\n            listingId,\n            msg.sender,\n            _token,\n            _tokenId,\n            _price\n        );\n    }\n\n    function getListing(uint _listingId) public view returns (Listing memory) {\n        return listings[_listingId];\n    }\n\n    function buyToken(uint _listingId) external payable {\n        Listing storage list = listings[_listingId];\n        \n        require(msg.sender != list.seller, \"Seller cannot be buyer.\");\n        require(list.status == ListingStatus.Active, \"Listing is not active.\");\n        require(msg.value >= list.price, \"Insufficient payment.\");\n        list.status = ListingStatus.Sold;\n        list.buyer = msg.sender;\n\n        IERC721(list.token).transferFrom(address(this), msg.sender, list.tokenId);\n        payable(list.seller).transfer(list.price);\n\n        emit Sale(\n            _listingId, \n            msg.sender, \n            list.token, \n            list.tokenId,\n            list.price\n        );\n    }\n\n    function cancel(uint _listingId) public {\n        Listing storage list = listings[_listingId];\n        \n        require(list.seller == msg.sender, \"Only seller can cancel the listing.\");\n        require(list.status == ListingStatus.Active, \"Listing is not active\");\n        list.status = ListingStatus.Cancelled;\n\n        IERC721(list.token).transferFrom(address(this), msg.sender, list.tokenId);\n      \n        emit Cancel(\n            _listingId, \n            list.seller\n        );\n    }\n}",
  "sourcePath": "D:\\Sahil\\Ethereum\\nft-marketplace\\marketplace\\contracts\\Market.sol",
  "compiler": {
    "name": "solc",
    "version": "0.8.11+commit.d7f03943.Emscripten.clang"
  },
  "schemaVersion": "3.4.4",
  "updatedAt": "2022-03-03T04:13:05.323Z",
  "networkType": "ethereum",
  "devdoc": {
    "kind": "dev",
    "methods": {},
    "version": 1
  },
  "userdoc": {
    "kind": "user",
    "methods": {},
    "version": 1
  }
}