{
  "contractName": "NFT",
  "abi": [
    {
      "inputs": [],
      "stateMutability": "nonpayable",
      "type": "constructor"
    },
    {
      "anonymous": false,
      "inputs": [
        {
          "indexed": true,
          "internalType": "address",
          "name": "owner",
          "type": "address"
        },
        {
          "indexed": true,
          "internalType": "address",
          "name": "approved",
          "type": "address"
        },
        {
          "indexed": true,
          "internalType": "uint256",
          "name": "tokenId",
          "type": "uint256"
        }
      ],
      "name": "Approval",
      "type": "event"
    },
    {
      "anonymous": false,
      "inputs": [
        {
          "indexed": true,
          "internalType": "address",
          "name": "owner",
          "type": "address"
        },
        {
          "indexed": true,
          "internalType": "address",
          "name": "operator",
          "type": "address"
        },
        {
          "indexed": false,
          "internalType": "bool",
          "name": "approved",
          "type": "bool"
        }
      ],
      "name": "ApprovalForAll",
      "type": "event"
    },
    {
      "anonymous": false,
      "inputs": [
        {
          "indexed": true,
          "internalType": "address",
          "name": "from",
          "type": "address"
        },
        {
          "indexed": true,
          "internalType": "address",
          "name": "to",
          "type": "address"
        },
        {
          "indexed": true,
          "internalType": "uint256",
          "name": "tokenId",
          "type": "uint256"
        }
      ],
      "name": "Transfer",
      "type": "event"
    },
    {
      "inputs": [
        {
          "internalType": "address",
          "name": "to",
          "type": "address"
        },
        {
          "internalType": "uint256",
          "name": "tokenId",
          "type": "uint256"
        }
      ],
      "name": "approve",
      "outputs": [],
      "stateMutability": "nonpayable",
      "type": "function"
    },
    {
      "inputs": [
        {
          "internalType": "address",
          "name": "owner",
          "type": "address"
        }
      ],
      "name": "balanceOf",
      "outputs": [
        {
          "internalType": "uint256",
          "name": "",
          "type": "uint256"
        }
      ],
      "stateMutability": "view",
      "type": "function",
      "constant": true
    },
    {
      "inputs": [
        {
          "internalType": "uint256",
          "name": "tokenId",
          "type": "uint256"
        }
      ],
      "name": "getApproved",
      "outputs": [
        {
          "internalType": "address",
          "name": "",
          "type": "address"
        }
      ],
      "stateMutability": "view",
      "type": "function",
      "constant": true
    },
    {
      "inputs": [
        {
          "internalType": "address",
          "name": "owner",
          "type": "address"
        },
        {
          "internalType": "address",
          "name": "operator",
          "type": "address"
        }
      ],
      "name": "isApprovedForAll",
      "outputs": [
        {
          "internalType": "bool",
          "name": "",
          "type": "bool"
        }
      ],
      "stateMutability": "view",
      "type": "function",
      "constant": true
    },
    {
      "inputs": [],
      "name": "name",
      "outputs": [
        {
          "internalType": "string",
          "name": "",
          "type": "string"
        }
      ],
      "stateMutability": "view",
      "type": "function",
      "constant": true
    },
    {
      "inputs": [
        {
          "internalType": "uint256",
          "name": "tokenId",
          "type": "uint256"
        }
      ],
      "name": "ownerOf",
      "outputs": [
        {
          "internalType": "address",
          "name": "",
          "type": "address"
        }
      ],
      "stateMutability": "view",
      "type": "function",
      "constant": true
    },
    {
      "inputs": [
        {
          "internalType": "address",
          "name": "from",
          "type": "address"
        },
        {
          "internalType": "address",
          "name": "to",
          "type": "address"
        },
        {
          "internalType": "uint256",
          "name": "tokenId",
          "type": "uint256"
        }
      ],
      "name": "safeTransferFrom",
      "outputs": [],
      "stateMutability": "nonpayable",
      "type": "function"
    },
    {
      "inputs": [
        {
          "internalType": "address",
          "name": "from",
          "type": "address"
        },
        {
          "internalType": "address",
          "name": "to",
          "type": "address"
        },
        {
          "internalType": "uint256",
          "name": "tokenId",
          "type": "uint256"
        },
        {
          "internalType": "bytes",
          "name": "_data",
          "type": "bytes"
        }
      ],
      "name": "safeTransferFrom",
      "outputs": [],
      "stateMutability": "nonpayable",
      "type": "function"
    },
    {
      "inputs": [
        {
          "internalType": "address",
          "name": "operator",
          "type": "address"
        },
        {
          "internalType": "bool",
          "name": "approved",
          "type": "bool"
        }
      ],
      "name": "setApprovalForAll",
      "outputs": [],
      "stateMutability": "nonpayable",
      "type": "function"
    },
    {
      "inputs": [
        {
          "internalType": "bytes4",
          "name": "interfaceId",
          "type": "bytes4"
        }
      ],
      "name": "supportsInterface",
      "outputs": [
        {
          "internalType": "bool",
          "name": "",
          "type": "bool"
        }
      ],
      "stateMutability": "view",
      "type": "function",
      "constant": true
    },
    {
      "inputs": [],
      "name": "symbol",
      "outputs": [
        {
          "internalType": "string",
          "name": "",
          "type": "string"
        }
      ],
      "stateMutability": "view",
      "type": "function",
      "constant": true
    },
    {
      "inputs": [],
      "name": "tokenId",
      "outputs": [
        {
          "internalType": "uint256",
          "name": "",
          "type": "uint256"
        }
      ],
      "stateMutability": "view",
      "type": "function",
      "constant": true
    },
    {
      "inputs": [
        {
          "internalType": "uint256",
          "name": "tokenId",
          "type": "uint256"
        }
      ],
      "name": "tokenURI",
      "outputs": [
        {
          "internalType": "string",
          "name": "",
          "type": "string"
        }
      ],
      "stateMutability": "view",
      "type": "function",
      "constant": true
    },
    {
      "inputs": [
        {
          "internalType": "address",
          "name": "from",
          "type": "address"
        },
        {
          "internalType": "address",
          "name": "to",
          "type": "address"
        },
        {
          "internalType": "uint256",
          "name": "tokenId",
          "type": "uint256"
        }
      ],
      "name": "transferFrom",
      "outputs": [],
      "stateMutability": "nonpayable",
      "type": "function"
    },
    {
      "inputs": [
        {
          "internalType": "string",
          "name": "tokenURI",
          "type": "string"
        }
      ],
      "name": "mint",
      "outputs": [
        {
          "internalType": "uint256",
          "name": "",
          "type": "uint256"
        }
      ],
      "stateMutability": "nonpayable",
      "type": "function"
    }
  ],
  "bytecode": "0x608060405260006007553480156200001657600080fd5b506040518060400160405280600881526020017f436f6f6c204e66740000000000000000000000000000000000000000000000008152506040518060400160405280600281526020017f435400000000000000000000000000000000000000000000000000000000000081525081600090805190602001906200009b929190620000bd565b508060019080519060200190620000b4929190620000bd565b505050620001d2565b828054620000cb906200019c565b90600052602060002090601f016020900481019282620000ef57600085556200013b565b82601f106200010a57805160ff19168380011785556200013b565b828001600101855582156200013b579182015b828111156200013a5782518255916020019190600101906200011d565b5b5090506200014a91906200014e565b5090565b5b80821115620001695760008160009055506001016200014f565b5090565b7f4e487b7100000000000000000000000000000000000000000000000000000000600052602260045260246000fd5b60006002820490506001821680620001b557607f821691505b60208210811415620001cc57620001cb6200016d565b5b50919050565b612bbe80620001e26000396000f3fe608060405234801561001057600080fd5b50600436106100f55760003560e01c80636352211e11610097578063b88d4fde11610066578063b88d4fde14610284578063c87b56dd146102a0578063d85d3d27146102d0578063e985e9c514610300576100f5565b80636352211e146101ea57806370a082311461021a57806395d89b411461024a578063a22cb46514610268576100f5565b8063095ea7b3116100d3578063095ea7b31461017857806317d70f7c1461019457806323b872dd146101b257806342842e0e146101ce576100f5565b806301ffc9a7146100fa57806306fdde031461012a578063081812fc14610148575b600080fd5b610114600480360381019061010f9190611933565b610330565b604051610121919061197b565b60405180910390f35b610132610412565b60405161013f9190611a2f565b60405180910390f35b610162600480360381019061015d9190611a87565b6104a4565b60405161016f9190611af5565b60405180910390f35b610192600480360381019061018d9190611b3c565b610529565b005b61019c610641565b6040516101a99190611b8b565b60405180910390f35b6101cc60048036038101906101c79190611ba6565b610647565b005b6101e860048036038101906101e39190611ba6565b6106a7565b005b61020460048036038101906101ff9190611a87565b6106c7565b6040516102119190611af5565b60405180910390f35b610234600480360381019061022f9190611bf9565b610779565b6040516102419190611b8b565b60405180910390f35b610252610831565b60405161025f9190611a2f565b60405180910390f35b610282600480360381019061027d9190611c52565b6108c3565b005b61029e60048036038101906102999190611dc7565b6108d9565b005b6102ba60048036038101906102b59190611a87565b61093b565b6040516102c79190611a2f565b60405180910390f35b6102ea60048036038101906102e59190611eeb565b610a8d565b6040516102f79190611b8b565b60405180910390f35b61031a60048036038101906103159190611f34565b610ac9565b604051610327919061197b565b60405180910390f35b60007f80ac58cd000000000000000000000000000000000000000000000000000000007bffffffffffffffffffffffffffffffffffffffffffffffffffffffff1916827bffffffffffffffffffffffffffffffffffffffffffffffffffffffff191614806103fb57507f5b5e139f000000000000000000000000000000000000000000000000000000007bffffffffffffffffffffffffffffffffffffffffffffffffffffffff1916827bffffffffffffffffffffffffffffffffffffffffffffffffffffffff1916145b8061040b575061040a82610b5d565b5b9050919050565b60606000805461042190611fa3565b80601f016020809104026020016040519081016040528092919081815260200182805461044d90611fa3565b801561049a5780601f1061046f5761010080835404028352916020019161049a565b820191906000526020600020905b81548152906001019060200180831161047d57829003601f168201915b5050505050905090565b60006104af82610bc7565b6104ee576040517f08c379a00000000000000000000000000000000000000000000000000000000081526004016104e590612047565b60405180910390fd5b6004600083815260200190815260200160002060009054906101000a900473ffffffffffffffffffffffffffffffffffffffff169050919050565b6000610534826106c7565b90508073ffffffffffffffffffffffffffffffffffffffff168373ffffffffffffffffffffffffffffffffffffffff1614156105a5576040517f08c379a000000000000000000000000000000000000000000000000000000000815260040161059c906120d9565b60405180910390fd5b8073ffffffffffffffffffffffffffffffffffffffff166105c4610c33565b73ffffffffffffffffffffffffffffffffffffffff1614806105f357506105f2816105ed610c33565b610ac9565b5b610632576040517f08c379a00000000000000000000000000000000000000000000000000000000081526004016106299061216b565b60405180910390fd5b61063c8383610c3b565b505050565b60075481565b610658610652610c33565b82610cf4565b610697576040517f08c379a000000000000000000000000000000000000000000000000000000000815260040161068e906121fd565b60405180910390fd5b6106a2838383610dd2565b505050565b6106c2838383604051806020016040528060008152506108d9565b505050565b6000806002600084815260200190815260200160002060009054906101000a900473ffffffffffffffffffffffffffffffffffffffff169050600073ffffffffffffffffffffffffffffffffffffffff168173ffffffffffffffffffffffffffffffffffffffff161415610770576040517f08c379a00000000000000000000000000000000000000000000000000000000081526004016107679061228f565b60405180910390fd5b80915050919050565b60008073ffffffffffffffffffffffffffffffffffffffff168273ffffffffffffffffffffffffffffffffffffffff1614156107ea576040517f08c379a00000000000000000000000000000000000000000000000000000000081526004016107e190612321565b60405180910390fd5b600360008373ffffffffffffffffffffffffffffffffffffffff1673ffffffffffffffffffffffffffffffffffffffff168152602001908152602001600020549050919050565b60606001805461084090611fa3565b80601f016020809104026020016040519081016040528092919081815260200182805461086c90611fa3565b80156108b95780601f1061088e576101008083540402835291602001916108b9565b820191906000526020600020905b81548152906001019060200180831161089c57829003601f168201915b5050505050905090565b6108d56108ce610c33565b8383611039565b5050565b6108ea6108e4610c33565b83610cf4565b610929576040517f08c379a0000000000000000000000000000000000000000000000000000000008152600401610920906121fd565b60405180910390fd5b610935848484846111a6565b50505050565b606061094682610bc7565b610985576040517f08c379a000000000000000000000000000000000000000000000000000000000815260040161097c906123b3565b60405180910390fd5b60006006600084815260200190815260200160002080546109a590611fa3565b80601f01602080910402602001604051908101604052809291908181526020018280546109d190611fa3565b8015610a1e5780601f106109f357610100808354040283529160200191610a1e565b820191906000526020600020905b815481529060010190602001808311610a0157829003601f168201915b505050505090506000610a2f611202565b9050600081511415610a45578192505050610a88565b600082511115610a7a578082604051602001610a6292919061240f565b60405160208183030381529060405292505050610a88565b610a8384611219565b925050505b919050565b600060076000815480929190610aa290612462565b9190505550610ab3336007546112c0565b610abf6007548361149a565b6007549050919050565b6000600560008473ffffffffffffffffffffffffffffffffffffffff1673ffffffffffffffffffffffffffffffffffffffff16815260200190815260200160002060008373ffffffffffffffffffffffffffffffffffffffff1673ffffffffffffffffffffffffffffffffffffffff16815260200190815260200160002060009054906101000a900460ff16905092915050565b60007f01ffc9a7000000000000000000000000000000000000000000000000000000007bffffffffffffffffffffffffffffffffffffffffffffffffffffffff1916827bffffffffffffffffffffffffffffffffffffffffffffffffffffffff1916149050919050565b60008073ffffffffffffffffffffffffffffffffffffffff166002600084815260200190815260200160002060009054906101000a900473ffffffffffffffffffffffffffffffffffffffff1673ffffffffffffffffffffffffffffffffffffffff1614159050919050565b600033905090565b816004600083815260200190815260200160002060006101000a81548173ffffffffffffffffffffffffffffffffffffffff021916908373ffffffffffffffffffffffffffffffffffffffff160217905550808273ffffffffffffffffffffffffffffffffffffffff16610cae836106c7565b73ffffffffffffffffffffffffffffffffffffffff167f8c5be1e5ebec7d5bd14f71427d1e84f3dd0314c0f7b2291e5b200ac8c7c3b92560405160405180910390a45050565b6000610cff82610bc7565b610d3e576040517f08c379a0000000000000000000000000000000000000000000000000000000008152600401610d359061251d565b60405180910390fd5b6000610d49836106c7565b90508073ffffffffffffffffffffffffffffffffffffffff168473ffffffffffffffffffffffffffffffffffffffff161480610db857508373ffffffffffffffffffffffffffffffffffffffff16610da0846104a4565b73ffffffffffffffffffffffffffffffffffffffff16145b80610dc95750610dc88185610ac9565b5b91505092915050565b8273ffffffffffffffffffffffffffffffffffffffff16610df2826106c7565b73ffffffffffffffffffffffffffffffffffffffff1614610e48576040517f08c379a0000000000000000000000000000000000000000000000000000000008152600401610e3f906125af565b60405180910390fd5b600073ffffffffffffffffffffffffffffffffffffffff168273ffffffffffffffffffffffffffffffffffffffff161415610eb8576040517f08c379a0000000000000000000000000000000000000000000000000000000008152600401610eaf90612641565b60405180910390fd5b610ec383838361150e565b610ece600082610c3b565b6001600360008573ffffffffffffffffffffffffffffffffffffffff1673ffffffffffffffffffffffffffffffffffffffff1681526020019081526020016000206000828254610f1e9190612661565b925050819055506001600360008473ffffffffffffffffffffffffffffffffffffffff1673ffffffffffffffffffffffffffffffffffffffff1681526020019081526020016000206000828254610f759190612695565b92505081905550816002600083815260200190815260200160002060006101000a81548173ffffffffffffffffffffffffffffffffffffffff021916908373ffffffffffffffffffffffffffffffffffffffff160217905550808273ffffffffffffffffffffffffffffffffffffffff168473ffffffffffffffffffffffffffffffffffffffff167fddf252ad1be2c89b69c2b068fc378daa952ba7f163c4a11628f55a4df523b3ef60405160405180910390a4611034838383611513565b505050565b8173ffffffffffffffffffffffffffffffffffffffff168373ffffffffffffffffffffffffffffffffffffffff1614156110a8576040517f08c379a000000000000000000000000000000000000000000000000000000000815260040161109f90612737565b60405180910390fd5b80600560008573ffffffffffffffffffffffffffffffffffffffff1673ffffffffffffffffffffffffffffffffffffffff16815260200190815260200160002060008473ffffffffffffffffffffffffffffffffffffffff1673ffffffffffffffffffffffffffffffffffffffff16815260200190815260200160002060006101000a81548160ff0219169083151502179055508173ffffffffffffffffffffffffffffffffffffffff168373ffffffffffffffffffffffffffffffffffffffff167f17307eab39ab6107e8899845ad3d59bd9653f200f220920489ca2b5937696c3183604051611199919061197b565b60405180910390a3505050565b6111b1848484610dd2565b6111bd84848484611518565b6111fc576040517f08c379a00000000000000000000000000000000000000000000000000000000081526004016111f3906127c9565b60405180910390fd5b50505050565b606060405180602001604052806000815250905090565b606061122482610bc7565b611263576040517f08c379a000000000000000000000000000000000000000000000000000000000815260040161125a9061285b565b60405180910390fd5b600061126d611202565b9050600081511161128d57604051806020016040528060008152506112b8565b80611297846116a0565b6040516020016112a892919061240f565b6040516020818303038152906040525b915050919050565b600073ffffffffffffffffffffffffffffffffffffffff168273ffffffffffffffffffffffffffffffffffffffff161415611330576040517f08c379a0000000000000000000000000000000000000000000000000000000008152600401611327906128c7565b60405180910390fd5b61133981610bc7565b15611379576040517f08c379a000000000000000000000000000000000000000000000000000000000815260040161137090612933565b60405180910390fd5b6113856000838361150e565b6001600360008473ffffffffffffffffffffffffffffffffffffffff1673ffffffffffffffffffffffffffffffffffffffff16815260200190815260200160002060008282546113d59190612695565b92505081905550816002600083815260200190815260200160002060006101000a81548173ffffffffffffffffffffffffffffffffffffffff021916908373ffffffffffffffffffffffffffffffffffffffff160217905550808273ffffffffffffffffffffffffffffffffffffffff16600073ffffffffffffffffffffffffffffffffffffffff167fddf252ad1be2c89b69c2b068fc378daa952ba7f163c4a11628f55a4df523b3ef60405160405180910390a461149660008383611513565b5050565b6114a382610bc7565b6114e2576040517f08c379a00000000000000000000000000000000000000000000000000000000081526004016114d9906129c5565b60405180910390fd5b80600660008481526020019081526020016000209080519060200190611509929190611824565b505050565b505050565b505050565b60006115398473ffffffffffffffffffffffffffffffffffffffff16611801565b15611693578373ffffffffffffffffffffffffffffffffffffffff1663150b7a02611562610c33565b8786866040518563ffffffff1660e01b81526004016115849493929190612a3a565b6020604051808303816000875af19250505080156115c057506040513d601f19601f820116820180604052508101906115bd9190612a9b565b60015b611643573d80600081146115f0576040519150601f19603f3d011682016040523d82523d6000602084013e6115f5565b606091505b5060008151141561163b576040517f08c379a0000000000000000000000000000000000000000000000000000000008152600401611632906127c9565b60405180910390fd5b805181602001fd5b63150b7a0260e01b7bffffffffffffffffffffffffffffffffffffffffffffffffffffffff1916817bffffffffffffffffffffffffffffffffffffffffffffffffffffffff191614915050611698565b600190505b949350505050565b606060008214156116e8576040518060400160405280600181526020017f300000000000000000000000000000000000000000000000000000000000000081525090506117fc565b600082905060005b6000821461171a57808061170390612462565b915050600a826117139190612af7565b91506116f0565b60008167ffffffffffffffff81111561173657611735611c9c565b5b6040519080825280601f01601f1916602001820160405280156117685781602001600182028036833780820191505090505b5090505b600085146117f5576001826117819190612661565b9150600a856117909190612b28565b603061179c9190612695565b60f81b8183815181106117b2576117b1612b59565b5b60200101907effffffffffffffffffffffffffffffffffffffffffffffffffffffffffffff1916908160001a905350600a856117ee9190612af7565b945061176c565b8093505050505b919050565b6000808273ffffffffffffffffffffffffffffffffffffffff163b119050919050565b82805461183090611fa3565b90600052602060002090601f0160209004810192826118525760008555611899565b82601f1061186b57805160ff1916838001178555611899565b82800160010185558215611899579182015b8281111561189857825182559160200191906001019061187d565b5b5090506118a691906118aa565b5090565b5b808211156118c35760008160009055506001016118ab565b5090565b6000604051905090565b600080fd5b600080fd5b60007fffffffff0000000000000000000000000000000000000000000000000000000082169050919050565b611910816118db565b811461191b57600080fd5b50565b60008135905061192d81611907565b92915050565b600060208284031215611949576119486118d1565b5b60006119578482850161191e565b91505092915050565b60008115159050919050565b61197581611960565b82525050565b6000602082019050611990600083018461196c565b92915050565b600081519050919050565b600082825260208201905092915050565b60005b838110156119d05780820151818401526020810190506119b5565b838111156119df576000848401525b50505050565b6000601f19601f8301169050919050565b6000611a0182611996565b611a0b81856119a1565b9350611a1b8185602086016119b2565b611a24816119e5565b840191505092915050565b60006020820190508181036000830152611a4981846119f6565b905092915050565b6000819050919050565b611a6481611a51565b8114611a6f57600080fd5b50565b600081359050611a8181611a5b565b92915050565b600060208284031215611a9d57611a9c6118d1565b5b6000611aab84828501611a72565b91505092915050565b600073ffffffffffffffffffffffffffffffffffffffff82169050919050565b6000611adf82611ab4565b9050919050565b611aef81611ad4565b82525050565b6000602082019050611b0a6000830184611ae6565b92915050565b611b1981611ad4565b8114611b2457600080fd5b50565b600081359050611b3681611b10565b92915050565b60008060408385031215611b5357611b526118d1565b5b6000611b6185828601611b27565b9250506020611b7285828601611a72565b9150509250929050565b611b8581611a51565b82525050565b6000602082019050611ba06000830184611b7c565b92915050565b600080600060608486031215611bbf57611bbe6118d1565b5b6000611bcd86828701611b27565b9350506020611bde86828701611b27565b9250506040611bef86828701611a72565b9150509250925092565b600060208284031215611c0f57611c0e6118d1565b5b6000611c1d84828501611b27565b91505092915050565b611c2f81611960565b8114611c3a57600080fd5b50565b600081359050611c4c81611c26565b92915050565b60008060408385031215611c6957611c686118d1565b5b6000611c7785828601611b27565b9250506020611c8885828601611c3d565b9150509250929050565b600080fd5b600080fd5b7f4e487b7100000000000000000000000000000000000000000000000000000000600052604160045260246000fd5b611cd4826119e5565b810181811067ffffffffffffffff82111715611cf357611cf2611c9c565b5b80604052505050565b6000611d066118c7565b9050611d128282611ccb565b919050565b600067ffffffffffffffff821115611d3257611d31611c9c565b5b611d3b826119e5565b9050602081019050919050565b82818337600083830152505050565b6000611d6a611d6584611d17565b611cfc565b905082815260208101848484011115611d8657611d85611c97565b5b611d91848285611d48565b509392505050565b600082601f830112611dae57611dad611c92565b5b8135611dbe848260208601611d57565b91505092915050565b60008060008060808587031215611de157611de06118d1565b5b6000611def87828801611b27565b9450506020611e0087828801611b27565b9350506040611e1187828801611a72565b925050606085013567ffffffffffffffff811115611e3257611e316118d6565b5b611e3e87828801611d99565b91505092959194509250565b600067ffffffffffffffff821115611e6557611e64611c9c565b5b611e6e826119e5565b9050602081019050919050565b6000611e8e611e8984611e4a565b611cfc565b905082815260208101848484011115611eaa57611ea9611c97565b5b611eb5848285611d48565b509392505050565b600082601f830112611ed257611ed1611c92565b5b8135611ee2848260208601611e7b565b91505092915050565b600060208284031215611f0157611f006118d1565b5b600082013567ffffffffffffffff811115611f1f57611f1e6118d6565b5b611f2b84828501611ebd565b91505092915050565b60008060408385031215611f4b57611f4a6118d1565b5b6000611f5985828601611b27565b9250506020611f6a85828601611b27565b9150509250929050565b7f4e487b7100000000000000000000000000000000000000000000000000000000600052602260045260246000fd5b60006002820490506001821680611fbb57607f821691505b60208210811415611fcf57611fce611f74565b5b50919050565b7f4552433732313a20617070726f76656420717565727920666f72206e6f6e657860008201527f697374656e7420746f6b656e0000000000000000000000000000000000000000602082015250565b6000612031602c836119a1565b915061203c82611fd5565b604082019050919050565b6000602082019050818103600083015261206081612024565b9050919050565b7f4552433732313a20617070726f76616c20746f2063757272656e74206f776e6560008201527f7200000000000000000000000000000000000000000000000000000000000000602082015250565b60006120c36021836119a1565b91506120ce82612067565b604082019050919050565b600060208201905081810360008301526120f2816120b6565b9050919050565b7f4552433732313a20617070726f76652063616c6c6572206973206e6f74206f7760008201527f6e6572206e6f7220617070726f76656420666f7220616c6c0000000000000000602082015250565b60006121556038836119a1565b9150612160826120f9565b604082019050919050565b6000602082019050818103600083015261218481612148565b9050919050565b7f4552433732313a207472616e736665722063616c6c6572206973206e6f74206f60008201527f776e6572206e6f7220617070726f766564000000000000000000000000000000602082015250565b60006121e76031836119a1565b91506121f28261218b565b604082019050919050565b60006020820190508181036000830152612216816121da565b9050919050565b7f4552433732313a206f776e657220717565727920666f72206e6f6e657869737460008201527f656e7420746f6b656e0000000000000000000000000000000000000000000000602082015250565b60006122796029836119a1565b91506122848261221d565b604082019050919050565b600060208201905081810360008301526122a88161226c565b9050919050565b7f4552433732313a2062616c616e636520717565727920666f7220746865207a6560008201527f726f206164647265737300000000000000000000000000000000000000000000602082015250565b600061230b602a836119a1565b9150612316826122af565b604082019050919050565b6000602082019050818103600083015261233a816122fe565b9050919050565b7f45524337323155524953746f726167653a2055524920717565727920666f722060008201527f6e6f6e6578697374656e7420746f6b656e000000000000000000000000000000602082015250565b600061239d6031836119a1565b91506123a882612341565b604082019050919050565b600060208201905081810360008301526123cc81612390565b9050919050565b600081905092915050565b60006123e982611996565b6123f381856123d3565b93506124038185602086016119b2565b80840191505092915050565b600061241b82856123de565b915061242782846123de565b91508190509392505050565b7f4e487b7100000000000000000000000000000000000000000000000000000000600052601160045260246000fd5b600061246d82611a51565b91507fffffffffffffffffffffffffffffffffffffffffffffffffffffffffffffffff8214156124a05761249f612433565b5b600182019050919050565b7f4552433732313a206f70657261746f7220717565727920666f72206e6f6e657860008201527f697374656e7420746f6b656e0000000000000000000000000000000000000000602082015250565b6000612507602c836119a1565b9150612512826124ab565b604082019050919050565b60006020820190508181036000830152612536816124fa565b9050919050565b7f4552433732313a207472616e736665722066726f6d20696e636f72726563742060008201527f6f776e6572000000000000000000000000000000000000000000000000000000602082015250565b60006125996025836119a1565b91506125a48261253d565b604082019050919050565b600060208201905081810360008301526125c88161258c565b9050919050565b7f4552433732313a207472616e7366657220746f20746865207a65726f2061646460008201527f7265737300000000000000000000000000000000000000000000000000000000602082015250565b600061262b6024836119a1565b9150612636826125cf565b604082019050919050565b6000602082019050818103600083015261265a8161261e565b9050919050565b600061266c82611a51565b915061267783611a51565b92508282101561268a57612689612433565b5b828203905092915050565b60006126a082611a51565b91506126ab83611a51565b9250827fffffffffffffffffffffffffffffffffffffffffffffffffffffffffffffffff038211156126e0576126df612433565b5b828201905092915050565b7f4552433732313a20617070726f766520746f2063616c6c657200000000000000600082015250565b60006127216019836119a1565b915061272c826126eb565b602082019050919050565b6000602082019050818103600083015261275081612714565b9050919050565b7f4552433732313a207472616e7366657220746f206e6f6e20455243373231526560008201527f63656976657220696d706c656d656e7465720000000000000000000000000000602082015250565b60006127b36032836119a1565b91506127be82612757565b604082019050919050565b600060208201905081810360008301526127e2816127a6565b9050919050565b7f4552433732314d657461646174613a2055524920717565727920666f72206e6f60008201527f6e6578697374656e7420746f6b656e0000000000000000000000000000000000602082015250565b6000612845602f836119a1565b9150612850826127e9565b604082019050919050565b6000602082019050818103600083015261287481612838565b9050919050565b7f4552433732313a206d696e7420746f20746865207a65726f2061646472657373600082015250565b60006128b16020836119a1565b91506128bc8261287b565b602082019050919050565b600060208201905081810360008301526128e0816128a4565b9050919050565b7f4552433732313a20746f6b656e20616c7265616479206d696e74656400000000600082015250565b600061291d601c836119a1565b9150612928826128e7565b602082019050919050565b6000602082019050818103600083015261294c81612910565b9050919050565b7f45524337323155524953746f726167653a2055524920736574206f66206e6f6e60008201527f6578697374656e7420746f6b656e000000000000000000000000000000000000602082015250565b60006129af602e836119a1565b91506129ba82612953565b604082019050919050565b600060208201905081810360008301526129de816129a2565b9050919050565b600081519050919050565b600082825260208201905092915050565b6000612a0c826129e5565b612a1681856129f0565b9350612a268185602086016119b2565b612a2f816119e5565b840191505092915050565b6000608082019050612a4f6000830187611ae6565b612a5c6020830186611ae6565b612a696040830185611b7c565b8181036060830152612a7b8184612a01565b905095945050505050565b600081519050612a9581611907565b92915050565b600060208284031215612ab157612ab06118d1565b5b6000612abf84828501612a86565b91505092915050565b7f4e487b7100000000000000000000000000000000000000000000000000000000600052601260045260246000fd5b6000612b0282611a51565b9150612b0d83611a51565b925082612b1d57612b1c612ac8565b5b828204905092915050565b6000612b3382611a51565b9150612b3e83611a51565b925082612b4e57612b4d612ac8565b5b828206905092915050565b7f4e487b7100000000000000000000000000000000000000000000000000000000600052603260045260246000fdfea2646970667358221220803f892e895e04f176c975370174615971d0fb95eba15370aed5a7d3e6ba14af64736f6c634300080b0033",
  "immutableReferences": {},
  "source": "// SPDX-License-Identifier: MIT\npragma solidity ^0.8.9;\n\nimport \"@openzeppelin/contracts/token/ERC721/ERC721.sol\";\nimport \"@openzeppelin/contracts/token/ERC721/extensions/ERC721URIStorage.sol\";\n\ncontract NFT is ERC721URIStorage {\n    constructor() ERC721(\"Cool Nft\", \"CT\") {}\n    uint public tokenId = 0;\n\n    function mint(string memory tokenURI) external returns (uint) {\n        tokenId++;\n        _mint(msg.sender, tokenId);\n        _setTokenURI(tokenId, tokenURI);\n        return tokenId;\n    }\n}",
  "sourcePath": "D:\\Sahil\\Ethereum\\nft-marketplace\\marketplace\\contracts\\NFT.sol",
  "compiler": {
    "name": "solc",
    "version": "0.8.11+commit.d7f03943.Emscripten.clang"
  },
  "schemaVersion": "3.4.4",
  "updatedAt": "2022-03-03T04:13:05.305Z",
  "networkType": "ethereum",
  "devdoc": {
    "kind": "dev",
    "methods": {
      "approve(address,uint256)": {
        "details": "See {IERC721-approve}."
      },
      "balanceOf(address)": {
        "details": "See {IERC721-balanceOf}."
      },
      "getApproved(uint256)": {
        "details": "See {IERC721-getApproved}."
      },
      "isApprovedForAll(address,address)": {
        "details": "See {IERC721-isApprovedForAll}."
      },
      "name()": {
        "details": "See {IERC721Metadata-name}."
      },
      "ownerOf(uint256)": {
        "details": "See {IERC721-ownerOf}."
      },
      "safeTransferFrom(address,address,uint256)": {
        "details": "See {IERC721-safeTransferFrom}."
      },
      "safeTransferFrom(address,address,uint256,bytes)": {
        "details": "See {IERC721-safeTransferFrom}."
      },
      "setApprovalForAll(address,bool)": {
        "details": "See {IERC721-setApprovalForAll}."
      },
      "supportsInterface(bytes4)": {
        "details": "See {IERC165-supportsInterface}."
      },
      "symbol()": {
        "details": "See {IERC721Metadata-symbol}."
      },
      "tokenURI(uint256)": {
        "details": "See {IERC721Metadata-tokenURI}."
      },
      "transferFrom(address,address,uint256)": {
        "details": "See {IERC721-transferFrom}."
      }
    },
    "version": 1
  },
  "userdoc": {
    "kind": "user",
    "methods": {},
    "version": 1
  }
}